{
  "_format": "hh-sol-artifact-1",
  "contractName": "Payment",
  "sourceName": "contracts/Payment.sol",
  "abi": [
    {
      "inputs": [],
      "stateMutability": "nonpayable",
      "type": "constructor"
    },
    {
      "inputs": [
        {
          "internalType": "string",
          "name": "_name",
          "type": "string"
        },
        {
          "internalType": "address",
          "name": "_account",
          "type": "address"
        }
      ],
      "name": "addFriend",
      "outputs": [],
      "stateMutability": "nonpayable",
      "type": "function"
    },
    {
      "inputs": [
        {
          "internalType": "address",
          "name": "",
          "type": "address"
        }
      ],
      "name": "customerBalance",
      "outputs": [
        {
          "internalType": "uint256",
          "name": "",
          "type": "uint256"
        }
      ],
      "stateMutability": "view",
      "type": "function"
    },
    {
      "inputs": [
        {
          "internalType": "address",
          "name": "",
          "type": "address"
        },
        {
          "internalType": "uint256",
          "name": "",
          "type": "uint256"
        }
      ],
      "name": "customerFriendList",
      "outputs": [
        {
          "internalType": "string",
          "name": "name",
          "type": "string"
        },
        {
          "internalType": "address",
          "name": "friendAccount",
          "type": "address"
        }
      ],
      "stateMutability": "view",
      "type": "function"
    },
    {
      "inputs": [],
      "name": "depositMoney",
      "outputs": [],
      "stateMutability": "payable",
      "type": "function"
    },
    {
      "inputs": [],
      "name": "getCustomerBalance",
      "outputs": [
        {
          "internalType": "uint256",
          "name": "",
          "type": "uint256"
        }
      ],
      "stateMutability": "view",
      "type": "function"
    },
    {
      "inputs": [],
      "name": "getCustomerFriendList",
      "outputs": [
        {
          "components": [
            {
              "internalType": "string",
              "name": "name",
              "type": "string"
            },
            {
              "internalType": "address",
              "name": "friendAccount",
              "type": "address"
            }
          ],
          "internalType": "struct Payment.Friend[]",
          "name": "",
          "type": "tuple[]"
        }
      ],
      "stateMutability": "view",
      "type": "function"
    },
    {
      "inputs": [],
      "name": "paymentPlatformName",
      "outputs": [
        {
          "internalType": "string",
          "name": "",
          "type": "string"
        }
      ],
      "stateMutability": "view",
      "type": "function"
    },
    {
      "inputs": [],
      "name": "paymentPlatformOwner",
      "outputs": [
        {
          "internalType": "address",
          "name": "",
          "type": "address"
        }
      ],
      "stateMutability": "view",
      "type": "function"
    },
    {
      "inputs": [
        {
          "internalType": "address payable",
          "name": "_to",
          "type": "address"
        },
        {
          "internalType": "uint256",
          "name": "_total",
          "type": "uint256"
        }
      ],
      "name": "transferMoney",
      "outputs": [],
      "stateMutability": "payable",
      "type": "function"
    },
    {
      "inputs": [
        {
          "internalType": "address payable",
          "name": "_to",
          "type": "address"
        },
        {
          "internalType": "uint256",
          "name": "_total",
          "type": "uint256"
        }
      ],
      "name": "withDrawMoney",
      "outputs": [],
      "stateMutability": "payable",
      "type": "function"
    }
  ],
  "bytecode": "0x608060405234801561001057600080fd5b50336000806101000a81548173ffffffffffffffffffffffffffffffffffffffff021916908373ffffffffffffffffffffffffffffffffffffffff1602179055506112db806100606000396000f3fe6080604052600436106100915760003560e01c8063a853409a11610059578063a853409a14610171578063b39d7b7c1461019c578063daa7ddb2146101b8578063f2162adc146101e1578063fee666ad1461020c57610091565b806316c05aa21461009657806337ebe47b146100a05780633bc52d36146100dd5780636420940e146101085780639bea0b9614610133575b600080fd5b61009e610228565b005b3480156100ac57600080fd5b506100c760048036038101906100c29190610acf565b6102c4565b6040516100d49190610e81565b60405180910390f35b3480156100e957600080fd5b506100f26102dc565b6040516100ff9190610d92565b60405180910390f35b34801561011457600080fd5b5061011d610300565b60405161012a9190610dad565b60405180910390f35b34801561013f57600080fd5b5061015a60048036038101906101559190610b34565b610484565b604051610168929190610df1565b60405180910390f35b34801561017d57600080fd5b5061018661056d565b6040516101939190610e81565b60405180910390f35b6101b660048036038101906101b19190610af8565b6105b4565b005b3480156101c457600080fd5b506101df60048036038101906101da9190610b70565b6106d7565b005b3480156101ed57600080fd5b506101f66107d4565b6040516102039190610dcf565b60405180910390f35b61022660048036038101906102219190610af8565b610862565b005b600034141561026c576040517f08c379a000000000000000000000000000000000000000000000000000000000815260040161026390610e41565b60405180910390fd5b34600260003373ffffffffffffffffffffffffffffffffffffffff1673ffffffffffffffffffffffffffffffffffffffff16815260200190815260200160002060008282546102bb9190610f58565b92505081905550565b60026020528060005260406000206000915090505481565b60008054906101000a900473ffffffffffffffffffffffffffffffffffffffff1681565b6060600360003373ffffffffffffffffffffffffffffffffffffffff1673ffffffffffffffffffffffffffffffffffffffff168152602001908152602001600020805480602002602001604051908101604052809291908181526020016000905b8282101561047b578382906000526020600020906002020160405180604001604052908160008201805461039490611072565b80601f01602080910402602001604051908101604052809291908181526020018280546103c090611072565b801561040d5780601f106103e25761010080835404028352916020019161040d565b820191906000526020600020905b8154815290600101906020018083116103f057829003601f168201915b505050505081526020016001820160009054906101000a900473ffffffffffffffffffffffffffffffffffffffff1673ffffffffffffffffffffffffffffffffffffffff1673ffffffffffffffffffffffffffffffffffffffff168152505081526020019060010190610361565b50505050905090565b600360205281600052604060002081815481106104a057600080fd5b9060005260206000209060020201600091509150508060000180546104c490611072565b80601f01602080910402602001604051908101604052809291908181526020018280546104f090611072565b801561053d5780601f106105125761010080835404028352916020019161053d565b820191906000526020600020905b81548152906001019060200180831161052057829003601f168201915b5050505050908060010160009054906101000a900473ffffffffffffffffffffffffffffffffffffffff16905082565b6000600260003373ffffffffffffffffffffffffffffffffffffffff1673ffffffffffffffffffffffffffffffffffffffff16815260200190815260200160002054905090565b600260003373ffffffffffffffffffffffffffffffffffffffff1673ffffffffffffffffffffffffffffffffffffffff16815260200190815260200160002054811115610636576040517f08c379a000000000000000000000000000000000000000000000000000000000815260040161062d90610e21565b60405180910390fd5b80600260003373ffffffffffffffffffffffffffffffffffffffff1673ffffffffffffffffffffffffffffffffffffffff16815260200190815260200160002060008282546106859190610fae565b925050819055508173ffffffffffffffffffffffffffffffffffffffff166108fc829081150290604051600060405180830381858888f193505050501580156106d2573d6000803e3d6000fd5b505050565b600360003373ffffffffffffffffffffffffffffffffffffffff1673ffffffffffffffffffffffffffffffffffffffff16815260200190815260200160002060405180604001604052808481526020018373ffffffffffffffffffffffffffffffffffffffff1681525090806001815401808255809150506001900390600052602060002090600202016000909190919091506000820151816000019080519060200190610786929190610985565b5060208201518160010160006101000a81548173ffffffffffffffffffffffffffffffffffffffff021916908373ffffffffffffffffffffffffffffffffffffffff16021790555050505050565b600180546107e190611072565b80601f016020809104026020016040519081016040528092919081815260200182805461080d90611072565b801561085a5780601f1061082f5761010080835404028352916020019161085a565b820191906000526020600020905b81548152906001019060200180831161083d57829003601f168201915b505050505081565b600260003373ffffffffffffffffffffffffffffffffffffffff1673ffffffffffffffffffffffffffffffffffffffff168152602001908152602001600020548111156108e4576040517f08c379a00000000000000000000000000000000000000000000000000000000081526004016108db90610e61565b60405180910390fd5b80600260003373ffffffffffffffffffffffffffffffffffffffff1673ffffffffffffffffffffffffffffffffffffffff16815260200190815260200160002060008282546109339190610fae565b925050819055508173ffffffffffffffffffffffffffffffffffffffff166108fc829081150290604051600060405180830381858888f19350505050158015610980573d6000803e3d6000fd5b505050565b82805461099190611072565b90600052602060002090601f0160209004810192826109b357600085556109fa565b82601f106109cc57805160ff19168380011785556109fa565b828001600101855582156109fa579182015b828111156109f95782518255916020019190600101906109de565b5b509050610a079190610a0b565b5090565b5b80821115610a24576000816000905550600101610a0c565b5090565b6000610a3b610a3684610ec1565b610e9c565b905082815260208101848484011115610a5357600080fd5b610a5e848285611030565b509392505050565b600081359050610a7581611260565b92915050565b600081359050610a8a81611277565b92915050565b600082601f830112610aa157600080fd5b8135610ab1848260208601610a28565b91505092915050565b600081359050610ac98161128e565b92915050565b600060208284031215610ae157600080fd5b6000610aef84828501610a66565b91505092915050565b60008060408385031215610b0b57600080fd5b6000610b1985828601610a7b565b9250506020610b2a85828601610aba565b9150509250929050565b60008060408385031215610b4757600080fd5b6000610b5585828601610a66565b9250506020610b6685828601610aba565b9150509250929050565b60008060408385031215610b8357600080fd5b600083013567ffffffffffffffff811115610b9d57600080fd5b610ba985828601610a90565b9250506020610bba85828601610a66565b9150509250929050565b6000610bd08383610d46565b905092915050565b610be181610fe2565b82525050565b610bf081610fe2565b82525050565b6000610c0182610f02565b610c0b8185610f25565b935083602082028501610c1d85610ef2565b8060005b85811015610c595784840389528151610c3a8582610bc4565b9450610c4583610f18565b925060208a01995050600181019050610c21565b50829750879550505050505092915050565b6000610c7682610f0d565b610c808185610f36565b9350610c9081856020860161103f565b610c9981611162565b840191505092915050565b6000610caf82610f0d565b610cb98185610f47565b9350610cc981856020860161103f565b610cd281611162565b840191505092915050565b6000610cea602583610f47565b9150610cf582611173565b604082019050919050565b6000610d0d602983610f47565b9150610d18826111c2565b604082019050919050565b6000610d30602583610f47565b9150610d3b82611211565b604082019050919050565b60006040830160008301518482036000860152610d638282610c6b565b9150506020830151610d786020860182610bd8565b508091505092915050565b610d8c81611026565b82525050565b6000602082019050610da76000830184610be7565b92915050565b60006020820190508181036000830152610dc78184610bf6565b905092915050565b60006020820190508181036000830152610de98184610ca4565b905092915050565b60006040820190508181036000830152610e0b8185610ca4565b9050610e1a6020830184610be7565b9392505050565b60006020820190508181036000830152610e3a81610cdd565b9050919050565b60006020820190508181036000830152610e5a81610d00565b9050919050565b60006020820190508181036000830152610e7a81610d23565b9050919050565b6000602082019050610e966000830184610d83565b92915050565b6000610ea6610eb7565b9050610eb282826110a4565b919050565b6000604051905090565b600067ffffffffffffffff821115610edc57610edb611133565b5b610ee582611162565b9050602081019050919050565b6000819050602082019050919050565b600081519050919050565b600081519050919050565b6000602082019050919050565b600082825260208201905092915050565b600082825260208201905092915050565b600082825260208201905092915050565b6000610f6382611026565b9150610f6e83611026565b9250827fffffffffffffffffffffffffffffffffffffffffffffffffffffffffffffffff03821115610fa357610fa26110d5565b5b828201905092915050565b6000610fb982611026565b9150610fc483611026565b925082821015610fd757610fd66110d5565b5b828203905092915050565b6000610fed82611006565b9050919050565b6000610fff82611006565b9050919050565b600073ffffffffffffffffffffffffffffffffffffffff82169050919050565b6000819050919050565b82818337600083830152505050565b60005b8381101561105d578082015181840152602081019050611042565b8381111561106c576000848401525b50505050565b6000600282049050600182168061108a57607f821691505b6020821081141561109e5761109d611104565b5b50919050565b6110ad82611162565b810181811067ffffffffffffffff821117156110cc576110cb611133565b5b80604052505050565b7f4e487b7100000000000000000000000000000000000000000000000000000000600052601160045260246000fd5b7f4e487b7100000000000000000000000000000000000000000000000000000000600052602260045260246000fd5b7f4e487b7100000000000000000000000000000000000000000000000000000000600052604160045260246000fd5b6000601f19601f8301169050919050565b7f596f75206861766520696e7375666669656e742066756e647320746f2077697460008201527f6864726177000000000000000000000000000000000000000000000000000000602082015250565b7f596f75206e65656420746f206465706f73697420736f6d6520616d6f756e742060008201527f6f66206d6f6e6579210000000000000000000000000000000000000000000000602082015250565b7f596f75206861766520696e7375666669656e742066756e647320746f2074726160008201527f6e73666572000000000000000000000000000000000000000000000000000000602082015250565b61126981610fe2565b811461127457600080fd5b50565b61128081610ff4565b811461128b57600080fd5b50565b61129781611026565b81146112a257600080fd5b5056fea264697066735822122046a60fe32cbce5d2ce383d7d22a1e0ab02fe68324ff27445e7bfd394b1741f0164736f6c63430008040033",
  "linkReferences": {},
  "deployedLinkReferences": {}
}